{
  "contractName": "RandomExample",
  "abi": [
    {
      "inputs": [],
      "payable": false,
      "stateMutability": "nonpayable",
      "type": "constructor"
    },
    {
      "anonymous": false,
      "inputs": [
        {
          "indexed": false,
          "internalType": "string",
          "name": "description",
          "type": "string"
        }
      ],
      "name": "LogNewProvableQuery",
      "type": "event"
    },
    {
      "anonymous": false,
      "inputs": [
        {
          "indexed": false,
          "internalType": "uint256",
          "name": "randomNumber",
          "type": "uint256"
        }
      ],
      "name": "generatedRandomNumber",
      "type": "event"
    },
    {
      "constant": false,
      "inputs": [
        {
          "internalType": "bytes32",
          "name": "_myid",
          "type": "bytes32"
        },
        {
          "internalType": "string",
          "name": "_result",
          "type": "string"
        }
      ],
      "name": "__callback",
      "outputs": [],
      "payable": false,
      "stateMutability": "nonpayable",
      "type": "function"
    },
    {
      "constant": false,
      "inputs": [
        {
          "internalType": "bytes32",
          "name": "_queryId",
          "type": "bytes32"
        },
        {
          "internalType": "string",
          "name": "_result",
          "type": "string"
        },
        {
          "internalType": "bytes",
          "name": "_proof",
          "type": "bytes"
        }
      ],
      "name": "__callback",
      "outputs": [],
      "payable": false,
      "stateMutability": "nonpayable",
      "type": "function"
    },
    {
      "constant": false,
      "inputs": [],
      "name": "update",
      "outputs": [],
      "payable": true,
      "stateMutability": "payable",
      "type": "function"
    }
  ],
  "bytecode": "0x60806040523480156200001157600080fd5b5062000027603060f81b6200003d60201b60201c565b62000037620003a060201b60201c565b620022c4565b600073ffffffffffffffffffffffffffffffffffffffff16600160009054906101000a900473ffffffffffffffffffffffffffffffffffffffff1673ffffffffffffffffffffffffffffffffffffffff161480620000cd57506000620000cb600160009054906101000a900473ffffffffffffffffffffffffffffffffffffffff166200041660201b60201c565b145b15620000e757620000e560006200042160201b60201c565b505b600160009054906101000a900473ffffffffffffffffffffffffffffffffffffffff1673ffffffffffffffffffffffffffffffffffffffff166338cc48316040518163ffffffff1660e01b8152600401602060405180830381600087803b1580156200015257600080fd5b505af115801562000167573d6000803e3d6000fd5b505050506040513d60208110156200017e57600080fd5b810190808051906020019092919050505073ffffffffffffffffffffffffffffffffffffffff166000809054906101000a900473ffffffffffffffffffffffffffffffffffffffff1673ffffffffffffffffffffffffffffffffffffffff1614620002cb57600160009054906101000a900473ffffffffffffffffffffffffffffffffffffffff1673ffffffffffffffffffffffffffffffffffffffff166338cc48316040518163ffffffff1660e01b8152600401602060405180830381600087803b1580156200024e57600080fd5b505af115801562000263573d6000803e3d6000fd5b505050506040513d60208110156200027a57600080fd5b81019080805190602001909291905050506000806101000a81548173ffffffffffffffffffffffffffffffffffffffff021916908373ffffffffffffffffffffffffffffffffffffffff1602179055505b6000809054906101000a900473ffffffffffffffffffffffffffffffffffffffff1673ffffffffffffffffffffffffffffffffffffffff1663688dcfd7826040518263ffffffff1660e01b815260040180827effffffffffffffffffffffffffffffffffffffffffffffffffffffffffffff19167effffffffffffffffffffffffffffffffffffffffffffffffffffffffffffff19168152602001915050600060405180830381600087803b1580156200038457600080fd5b505af115801562000399573d6000803e3d6000fd5b5050505050565b6000809050600062030d4090506000620003c3836001846200043a60201b60201c565b90507fc4dc360d0a9c0677a3379ae0a3d81e887f761e65fdf3d7e00859d1bcd3c47389604051808060200182810382526036815260200180620056b46036913960400191505060405180910390a1505050565b6000813b9050919050565b60006200043362000a0d60201b60201c565b9050919050565b600080831180156200044d575060208311155b6200045757600080fd5b600a84029350606060016040519080825280601f01601f191660200182016040528015620004945781602001600182028038833980820191505090505b5090508360f81b81600081518110620004a957fe5b60200101907effffffffffffffffffffffffffffffffffffffffffffffffffffffffffffff1916908160001a905350606060206040519080825280601f01601f1916602001820160405280156200050f5781602001600182028038833980820191505090505b509050606060206040519080825280601f01601f191660200182016040528015620005495781602001600182028038833980820191505090505b50905060006200055e62000fdc60201b60201c565b905060208352424118600143034018602084015260208252806020830152606060206040519080825280601f01601f191660200182016040528015620005b35781602001600182028038833980820191505090505b509050886020820152606060086040519080825280601f01601f191660200182016040528015620005f35781602001600182028038833980820191505090505b5090506200060e82601860088460006200131560201b60201c565b5062000619620021d3565b60405180608001604052808781526020018881526020018681526020018481525090506000620006866040518060400160405280600681526020017f72616e646f6d0000000000000000000000000000000000000000000000000000815250838c6200137760201b60201c565b9050606060086040519080825280601f01601f191660200182016040528015620006bf5781602001600182028038833980820191505090505b50905060208401517f0100000000000000000000000000000000000000000000000000000000000000810460278301537e01000000000000000000000000000000000000000000000000000000000000810460268301537d010000000000000000000000000000000000000000000000000000000000810460258301537c0100000000000000000000000000000000000000000000000000000000810460248301537b01000000000000000000000000000000000000000000000000000000810460238301537a010000000000000000000000000000000000000000000000000000810460228301537901000000000000000000000000000000000000000000000000008104602183015378010000000000000000000000000000000000000000000000008104602083015350620009fa8282856001600481106200080057fe5b60200201516002876000600481106200081557fe5b60200201516040518082805190602001908083835b602083106200084f57805182526020820191506020810190506020830392506200082a565b6001836020036101000a038019825116818451168082178552505050505050905001915050602060405180830381855afa15801562000892573d6000803e3d6000fd5b5050506040513d6020811015620008a857600080fd5b810190808051906020019092919050505087600260048110620008c757fe5b60200201516040516020018085805190602001908083835b60208310620009045780518252602082019150602081019050602083039250620008df565b6001836020036101000a03801982511681845116808217855250505050505090500184805190602001908083835b6020831062000957578051825260208201915060208101905060208303925062000932565b6001836020036101000a03801982511681845116808217855250505050505090500183815260200182805190602001908083835b60208310620009b057805182526020820191506020810190506020830392506200098b565b6001836020036101000a038019825116818451168082178552505050505050905001945050505050604051602081830303815290604052805190602001206200170f60201b60201c565b8199505050505050505050509392505050565b60008062000a35731d3b2638a7cc9f2cb3d298a3da7a90b67e5506ed6200041660201b60201c565b111562000ae157731d3b2638a7cc9f2cb3d298a3da7a90b67e5506ed600160006101000a81548173ffffffffffffffffffffffffffffffffffffffff021916908373ffffffffffffffffffffffffffffffffffffffff16021790555062000ad76040518060400160405280600b81526020017f6574685f6d61696e6e65740000000000000000000000000000000000000000008152506200172b60201b60201c565b6001905062000fd9565b600062000b0873c03a2615d5efaf5f49f60b7bb6583eaec212fdf16200041660201b60201c565b111562000bb45773c03a2615d5efaf5f49f60b7bb6583eaec212fdf1600160006101000a81548173ffffffffffffffffffffffffffffffffffffffff021916908373ffffffffffffffffffffffffffffffffffffffff16021790555062000baa6040518060400160405280600c81526020017f6574685f726f707374656e3300000000000000000000000000000000000000008152506200172b60201b60201c565b6001905062000fd9565b600062000bdb73b7a07bcf2ba2f2703b24c0691b5278999c59ac7e6200041660201b60201c565b111562000c875773b7a07bcf2ba2f2703b24c0691b5278999c59ac7e600160006101000a81548173ffffffffffffffffffffffffffffffffffffffff021916908373ffffffffffffffffffffffffffffffffffffffff16021790555062000c7d6040518060400160405280600981526020017f6574685f6b6f76616e00000000000000000000000000000000000000000000008152506200172b60201b60201c565b6001905062000fd9565b600062000cae73146500cfd35b22e4a392fe0adc06de1a1368ed486200041660201b60201c565b111562000d5a5773146500cfd35b22e4a392fe0adc06de1a1368ed48600160006101000a81548173ffffffffffffffffffffffffffffffffffffffff021916908373ffffffffffffffffffffffffffffffffffffffff16021790555062000d506040518060400160405280600b81526020017f6574685f72696e6b6562790000000000000000000000000000000000000000008152506200172b60201b60201c565b6001905062000fd9565b600062000d8173a2998efd205fb9d4b4963afb70778d6354ad3a416200041660201b60201c565b111562000e2d5773a2998efd205fb9d4b4963afb70778d6354ad3a41600160006101000a81548173ffffffffffffffffffffffffffffffffffffffff021916908373ffffffffffffffffffffffffffffffffffffffff16021790555062000e236040518060400160405280600a81526020017f6574685f676f65726c69000000000000000000000000000000000000000000008152506200172b60201b60201c565b6001905062000fd9565b600062000e54736f485c8bf6fc43ea212e93bbf8ce046c7f1cb4756200041660201b60201c565b111562000eba57736f485c8bf6fc43ea212e93bbf8ce046c7f1cb475600160006101000a81548173ffffffffffffffffffffffffffffffffffffffff021916908373ffffffffffffffffffffffffffffffffffffffff1602179055506001905062000fd9565b600062000ee17320e12a1f859b3feae5fb2a0a32c18f5a65555bbf6200041660201b60201c565b111562000f47577320e12a1f859b3feae5fb2a0a32c18f5a65555bbf600160006101000a81548173ffffffffffffffffffffffffffffffffffffffff021916908373ffffffffffffffffffffffffffffffffffffffff1602179055506001905062000fd9565b600062000f6e7351efaf4c8b3c9afbd5ab9f4bbc82784ab6ef8faa6200041660201b60201c565b111562000fd4577351efaf4c8b3c9afbd5ab9f4bbc82784ab6ef8faa600160006101000a81548173ffffffffffffffffffffffffffffffffffffffff021916908373ffffffffffffffffffffffffffffffffffffffff1602179055506001905062000fd9565b600090505b90565b60008073ffffffffffffffffffffffffffffffffffffffff16600160009054906101000a900473ffffffffffffffffffffffffffffffffffffffff1673ffffffffffffffffffffffffffffffffffffffff1614806200106d575060006200106b600160009054906101000a900473ffffffffffffffffffffffffffffffffffffffff166200041660201b60201c565b145b1562001087576200108560006200042160201b60201c565b505b600160009054906101000a900473ffffffffffffffffffffffffffffffffffffffff1673ffffffffffffffffffffffffffffffffffffffff166338cc48316040518163ffffffff1660e01b8152600401602060405180830381600087803b158015620010f257600080fd5b505af115801562001107573d6000803e3d6000fd5b505050506040513d60208110156200111e57600080fd5b810190808051906020019092919050505073ffffffffffffffffffffffffffffffffffffffff166000809054906101000a900473ffffffffffffffffffffffffffffffffffffffff1673ffffffffffffffffffffffffffffffffffffffff16146200126b57600160009054906101000a900473ffffffffffffffffffffffffffffffffffffffff1673ffffffffffffffffffffffffffffffffffffffff166338cc48316040518163ffffffff1660e01b8152600401602060405180830381600087803b158015620011ee57600080fd5b505af115801562001203573d6000803e3d6000fd5b505050506040513d60208110156200121a57600080fd5b81019080805190602001909291905050506000806101000a81548173ffffffffffffffffffffffffffffffffffffffff021916908373ffffffffffffffffffffffffffffffffffffffff1602179055505b6000809054906101000a900473ffffffffffffffffffffffffffffffffffffffff1673ffffffffffffffffffffffffffffffffffffffff1663abaa5f3e6040518163ffffffff1660e01b815260040160206040518083038186803b158015620012d357600080fd5b505afa158015620012e8573d6000803e3d6000fd5b505050506040513d6020811015620012ff57600080fd5b8101908080519060200190929190505050905090565b60606000828501905080845110156200132d57600080fd5b600086602001905060008460200190505b8688602001018210156200136857818901518082880152506020820191506020810190506200133e565b85935050505095945050505050565b60008073ffffffffffffffffffffffffffffffffffffffff16600160009054906101000a900473ffffffffffffffffffffffffffffffffffffffff1673ffffffffffffffffffffffffffffffffffffffff161480620014085750600062001406600160009054906101000a900473ffffffffffffffffffffffffffffffffffffffff166200041660201b60201c565b145b1562001422576200142060006200042160201b60201c565b505b600160009054906101000a900473ffffffffffffffffffffffffffffffffffffffff1673ffffffffffffffffffffffffffffffffffffffff166338cc48316040518163ffffffff1660e01b8152600401602060405180830381600087803b1580156200148d57600080fd5b505af1158015620014a2573d6000803e3d6000fd5b505050506040513d6020811015620014b957600080fd5b810190808051906020019092919050505073ffffffffffffffffffffffffffffffffffffffff166000809054906101000a900473ffffffffffffffffffffffffffffffffffffffff1673ffffffffffffffffffffffffffffffffffffffff16146200160657600160009054906101000a900473ffffffffffffffffffffffffffffffffffffffff1673ffffffffffffffffffffffffffffffffffffffff166338cc48316040518163ffffffff1660e01b8152600401602060405180830381600087803b1580156200158957600080fd5b505af11580156200159e573d6000803e3d6000fd5b505050506040513d6020811015620015b557600080fd5b81019080805190602001909291905050506000806101000a81548173ffffffffffffffffffffffffffffffffffffffff021916908373ffffffffffffffffffffffffffffffffffffffff1602179055505b606060046040519080825280602002602001820160405280156200163f57816020015b6060815260200190600190039081620016295790505b509050836000600481106200165057fe5b6020020151816000815181106200166357fe5b6020026020010181905250836001600481106200167c57fe5b6020020151816001815181106200168f57fe5b602002602001018190525083600260048110620016a857fe5b602002015181600281518110620016bb57fe5b602002602001018190525083600360048110620016d457fe5b602002015181600381518110620016e757fe5b6020026020010181905250620017058582856200174760201b60201c565b9150509392505050565b8060036000848152602001908152602001600020819055505050565b806002908051906020019062001743929190620021fb565b5050565b60008073ffffffffffffffffffffffffffffffffffffffff16600160009054906101000a900473ffffffffffffffffffffffffffffffffffffffff1673ffffffffffffffffffffffffffffffffffffffff161480620017d857506000620017d6600160009054906101000a900473ffffffffffffffffffffffffffffffffffffffff166200041660201b60201c565b145b15620017f257620017f060006200042160201b60201c565b505b600160009054906101000a900473ffffffffffffffffffffffffffffffffffffffff1673ffffffffffffffffffffffffffffffffffffffff166338cc48316040518163ffffffff1660e01b8152600401602060405180830381600087803b1580156200185d57600080fd5b505af115801562001872573d6000803e3d6000fd5b505050506040513d60208110156200188957600080fd5b810190808051906020019092919050505073ffffffffffffffffffffffffffffffffffffffff166000809054906101000a900473ffffffffffffffffffffffffffffffffffffffff1673ffffffffffffffffffffffffffffffffffffffff1614620019d657600160009054906101000a900473ffffffffffffffffffffffffffffffffffffffff1673ffffffffffffffffffffffffffffffffffffffff166338cc48316040518163ffffffff1660e01b8152600401602060405180830381600087803b1580156200195957600080fd5b505af11580156200196e573d6000803e3d6000fd5b505050506040513d60208110156200198557600080fd5b81019080805190602001909291905050506000806101000a81548173ffffffffffffffffffffffffffffffffffffffff021916908373ffffffffffffffffffffffffffffffffffffffff1602179055505b60008060009054906101000a900473ffffffffffffffffffffffffffffffffffffffff1673ffffffffffffffffffffffffffffffffffffffff16632ef3accc86856040518363ffffffff1660e01b81526004018080602001838152602001828103825284818151815260200191508051906020019080838360005b8381101562001a6e57808201518184015260208101905062001a51565b50505050905090810190601f16801562001a9c5780820380516001836020036101000a031916815260200191505b509350505050602060405180830381600087803b15801562001abd57600080fd5b505af115801562001ad2573d6000803e3d6000fd5b505050506040513d602081101562001ae957600080fd5b81019080805190602001909291905050509050823a02670de0b6b3a76400000181111562001b1e576000801b91505062001cd4565b606062001b318562001cdb60201b60201c565b90506000809054906101000a900473ffffffffffffffffffffffffffffffffffffffff1673ffffffffffffffffffffffffffffffffffffffff1663c55c1cb68360008985896040518663ffffffff1660e01b8152600401808581526020018060200180602001848152602001838103835286818151815260200191508051906020019080838360005b8381101562001bd757808201518184015260208101905062001bba565b50505050905090810190601f16801562001c055780820380516001836020036101000a031916815260200191505b50838103825285818151815260200191508051906020019080838360005b8381101562001c4057808201518184015260208101905062001c23565b50505050905090810190601f16801562001c6e5780820380516001836020036101000a031916815260200191505b5096505050505050506020604051808303818588803b15801562001c9157600080fd5b505af115801562001ca6573d6000803e3d6000fd5b50505050506040513d602081101562001cbe57600080fd5b8101908080519060200190929190505050925050505b9392505050565b606062001ced62001d9660201b60201c565b62001cf762002282565b62001d108161040062001da260201b62002ed21760201c565b62001d268162001def60201b62002f1c1760201c565b60008090505b835181101562001d725762001d6484828151811062001d4757fe5b60200260200101518362001e0560201b62002f2a1790919060201c565b808060010191505062001d2c565b5062001d898162001e3960201b62002f4f1760201c565b8060000151915050919050565b60405180590338823950565b600081905060006020828162001db457fe5b061462001dcf576020818162001dc657fe5b06602003810190505b808360200181815250506040518084526000815281810160405250505050565b62001e0281600462001e4f60201b60201c565b50565b62001e1a826002835162001e7760201b60201c565b62001e34818362001fff60201b620030be1790919060201c565b505050565b62001e4c81600762001e4f60201b60201c565b50565b62001e73601f60058360ff16901b1783620020bf60201b620031691790919060201c565b5050565b6017811162001eac5762001ea68160058460ff16901b60ff161784620020bf60201b620031691790919060201c565b62001ffa565b60ff811162001efd5762001ed9601860058460ff16901b1784620020bf60201b620031691790919060201c565b62001ef6816001856200210860201b620031a9179092919060201c565b5062001ff9565b61ffff811162001f4f5762001f2b601960058460ff16901b1784620020bf60201b620031691790919060201c565b62001f48816002856200210860201b620031a9179092919060201c565b5062001ff8565b63ffffffff811162001fa35762001f7f601a60058460ff16901b1784620020bf60201b620031691790919060201c565b62001f9c816004856200210860201b620031a9179092919060201c565b5062001ff7565b67ffffffffffffffff811162001ff65762001fd7601b60058460ff16901b1784620020bf60201b620031691790919060201c565b62001ff4816008856200210860201b620031a9179092919060201c565b505b5b5b5b5b505050565b6200200962002282565b826020015183600001515183510111156200204a57620020498360026200203c866020015186516200218260201b60201c565b02620021a060201b60201c565b5b60008060008451905085518051602081830101945086518101825260208701935050505b602081106200209357815183526020830192506020820191506020810390506200206e565b60006001826020036101000a039050801983511681855116818117865250508694505050505092915050565b81602001516001836000015151011115620020ee57620020ed826002846020015102620021a060201b60201c565b5b815180516020818301018381536001820183525050505050565b6200211262002282565b836020015184600001515183011115620021515762002150846002620021438760200151866200218260201b60201c565b02620021a060201b60201c565b5b60006001836101000a0390508451805184818301018684198251161781528582018352505050849150509392505050565b60008183111562002196578290506200219a565b8190505b92915050565b606082600001519050620021bb838362001da260201b60201c565b620021cd838262001fff60201b60201c565b50505050565b60405180608001604052806004905b6060815260200190600190039081620021e25790505090565b828054600181600116156101000203166002900490600052602060002090601f016020900481019282601f106200223e57805160ff19168380011785556200226f565b828001600101855582156200226f579182015b828111156200226e57825182559160200191906001019062002251565b5b5090506200227e91906200229c565b5090565b604051806040016040528060608152602001600081525090565b620022c191905b80821115620022bd576000816000905550600101620022a3565b5090565b90565b6133e080620022d46000396000f3fe6080604052600436106100345760003560e01c806327dc297e1461003957806338bbfa501461010b578063a2e6204514610274575b600080fd5b34801561004557600080fd5b506101096004803603604081101561005c57600080fd5b81019080803590602001909291908035906020019064010000000081111561008357600080fd5b82018360208201111561009557600080fd5b803590602001918460018302840111640100000000831117156100b757600080fd5b91908080601f016020809104026020016040519081016040528093929190818152602001838380828437600081840152601f19601f82011690508083019250505050505050919291929050505061027e565b005b34801561011757600080fd5b506102726004803603606081101561012e57600080fd5b81019080803590602001909291908035906020019064010000000081111561015557600080fd5b82018360208201111561016757600080fd5b8035906020019184600183028401116401000000008311171561018957600080fd5b91908080601f016020809104026020016040519081016040528093929190818152602001838380828437600081840152601f19601f820116905080830192505050505050509192919290803590602001906401000000008111156101ec57600080fd5b8201836020820111156101fe57600080fd5b8035906020019184600183028401116401000000008311171561022057600080fd5b91908080601f016020809104026020016040519081016040528093929190818152602001838380828437600081840152601f19601f8201169050808301925050505050505091929192905050506102c1565b005b61027c6103e6565b005b6102bd828260006040519080825280601f01601f1916602001820160405280156102b75781602001600182028038833980820191505090505b506102c1565b5050565b6102c9610453565b73ffffffffffffffffffffffffffffffffffffffff163373ffffffffffffffffffffffffffffffffffffffff161461030057600080fd5b600061030d848484610770565b60ff161461031a576103e1565b600060018060020a039050600081846040516020018082805190602001908083835b6020831061035f578051825260208201915060208101905060208303925061033c565b6001836020036101000a0380198251168184511680821785525050505050509050019150506040516020818303038152906040528051906020012060001c816103a457fe5b0690507fc13d60fe9dffdb6908d2d446cd18134373a51db0738ee04f296eeb9128121cbc816040518082815260200191505060405180910390a150505b505050565b6000809050600062030d4090506000610401836001846108a0565b90507fc4dc360d0a9c0677a3379ae0a3d81e887f761e65fdf3d7e00859d1bcd3c473896040518080602001828103825260368152602001806133766036913960400191505060405180910390a1505050565b60008073ffffffffffffffffffffffffffffffffffffffff16600160009054906101000a900473ffffffffffffffffffffffffffffffffffffffff1673ffffffffffffffffffffffffffffffffffffffff1614806104db575060006104d9600160009054906101000a900473ffffffffffffffffffffffffffffffffffffffff16610e3b565b145b156104ec576104ea6000610e46565b505b600160009054906101000a900473ffffffffffffffffffffffffffffffffffffffff1673ffffffffffffffffffffffffffffffffffffffff166338cc48316040518163ffffffff1660e01b8152600401602060405180830381600087803b15801561055657600080fd5b505af115801561056a573d6000803e3d6000fd5b505050506040513d602081101561058057600080fd5b810190808051906020019092919050505073ffffffffffffffffffffffffffffffffffffffff166000809054906101000a900473ffffffffffffffffffffffffffffffffffffffff1673ffffffffffffffffffffffffffffffffffffffff16146106c957600160009054906101000a900473ffffffffffffffffffffffffffffffffffffffff1673ffffffffffffffffffffffffffffffffffffffff166338cc48316040518163ffffffff1660e01b8152600401602060405180830381600087803b15801561064e57600080fd5b505af1158015610662573d6000803e3d6000fd5b505050506040513d602081101561067857600080fd5b81019080805190602001909291905050506000806101000a81548173ffffffffffffffffffffffffffffffffffffffff021916908373ffffffffffffffffffffffffffffffffffffffff1602179055505b6000809054906101000a900473ffffffffffffffffffffffffffffffffffffffff1673ffffffffffffffffffffffffffffffffffffffff1663c281d19e6040518163ffffffff1660e01b815260040160206040518083038186803b15801561073057600080fd5b505afa158015610744573d6000803e3d6000fd5b505050506040513d602081101561075a57600080fd5b8101908080519060200190929190505050905090565b60007f4c00000000000000000000000000000000000000000000000000000000000000826000815181106107a057fe5b602001015160f81c60f81b7effffffffffffffffffffffffffffffffffffffffffffffffffffffffffffff191614158061083357507f50000000000000000000000000000000000000000000000000000000000000008260018151811061080357fe5b602001015160f81c60f81b7effffffffffffffffffffffffffffffffffffffffffffffffffffffffffffff191614155b8061085f5750600160ff168260028151811061084b57fe5b602001015160f81c60f81b60f81c60ff1614155b1561086d5760019050610899565b600061088283868661087d610e57565b610ef9565b905080610893576002915050610899565b60009150505b9392505050565b600080831180156108b2575060208311155b6108bb57600080fd5b600a84029350606060016040519080825280601f01601f1916602001820160405280156108f75781602001600182028038833980820191505090505b5090508360f81b8160008151811061090b57fe5b60200101907effffffffffffffffffffffffffffffffffffffffffffffffffffffffffffff1916908160001a905350606060206040519080825280601f01601f1916602001820160405280156109705781602001600182028038833980820191505090505b509050606060206040519080825280601f01601f1916602001820160405280156109a95781602001600182028038833980820191505090505b50905060006109b66115a4565b905060208352424118600143034018602084015260208252806020830152606060206040519080825280601f01601f191660200182016040528015610a0a5781602001600182028038833980820191505090505b509050886020820152606060086040519080825280601f01601f191660200182016040528015610a495781602001600182028038833980820191505090505b509050610a5c82601860088460006118c1565b50610a6561324f565b60405180608001604052808781526020018881526020018681526020018481525090506000610aca6040518060400160405280600681526020017f72616e646f6d0000000000000000000000000000000000000000000000000000815250838c611920565b9050606060086040519080825280601f01601f191660200182016040528015610b025781602001600182028038833980820191505090505b50905060208401517f0100000000000000000000000000000000000000000000000000000000000000810460278301537e01000000000000000000000000000000000000000000000000000000000000810460268301537d010000000000000000000000000000000000000000000000000000000000810460258301537c0100000000000000000000000000000000000000000000000000000000810460248301537b01000000000000000000000000000000000000000000000000000000810460238301537a010000000000000000000000000000000000000000000000000000810460228301537901000000000000000000000000000000000000000000000000008104602183015378010000000000000000000000000000000000000000000000008104602083015350610e28828285600160048110610c4157fe5b6020020151600287600060048110610c5557fe5b60200201516040518082805190602001908083835b60208310610c8d5780518252602082019150602081019050602083039250610c6a565b6001836020036101000a038019825116818451168082178552505050505050905001915050602060405180830381855afa158015610ccf573d6000803e3d6000fd5b5050506040513d6020811015610ce457600080fd5b810190808051906020019092919050505087600260048110610d0257fe5b60200201516040516020018085805190602001908083835b60208310610d3d5780518252602082019150602081019050602083039250610d1a565b6001836020036101000a03801982511681845116808217855250505050505090500184805190602001908083835b60208310610d8e5780518252602082019150602081019050602083039250610d6b565b6001836020036101000a03801982511681845116808217855250505050505090500183815260200182805190602001908083835b60208310610de55780518252602082019150602081019050602083039250610dc2565b6001836020036101000a03801982511681845116808217855250505050505090500194505050505060405160208183030381529060405280519060200120611c8d565b8199505050505050505050509392505050565b6000813b9050919050565b6000610e50611ca9565b9050919050565b606060028054600181600116156101000203166002900480601f016020809104026020016040519081016040528092919081815260200182805460018160011615610100020316600290048015610eef5780601f10610ec457610100808354040283529160200191610eef565b820191906000526020600020905b815481529060010190602001808311610ed257829003601f168201915b5050505050905090565b6000806020600287604581518110610f0d57fe5b602001015160f81c60f81b60f81c60ff1601604401019050606060206040519080825280601f01601f191660200182016040528015610f5b5781602001600182028038833980820191505090505b509050610f6d878360208460006118c1565b50600284876040516020018083805190602001908083835b60208310610fa85780518252602082019150602081019050602083039250610f85565b6001836020036101000a038019825116818451168082178552505050505050905001828152602001925050506040516020818303038152906040526040518082805190602001908083835b602083106110165780518252602082019150602081019050602083039250610ff3565b6001836020036101000a038019825116818451168082178552505050505050905001915050602060405180830381855afa158015611058573d6000803e3d6000fd5b5050506040513d602081101561106d57600080fd5b810190808051906020019092919050505060405160200180828152602001915050604051602081830303815290604052805190602001208180519060200120146110bc5760009250505061159c565b606060028860016049860101815181106110d257fe5b602001015160f81c60f81b60f81c60ff16016040519080825280601f01601f1916602001820160405280156111165781602001600182028038833980820191505090505b50905061112b886049850183518460006118c1565b506111f66002826040518082805190602001908083835b602083106111655780518252602082019150602081019050602083039250611142565b6001836020036101000a038019825116818451168082178552505050505050905001915050602060405180830381855afa1580156111a7573d6000803e3d6000fd5b5050506040513d60208110156111bc57600080fd5b8101908080519060200190929190505050878a60086020880101815181106111e057fe5b602001015160f81c60f81b60f81c60ff16612200565b611206576000935050505061159c565b606060296040519080825280601f01601f19166020018201604052801561123c5781602001600182028038833980820191505090505b509050611251896020860160298460006118c1565b506060604080519080825280601f01601f1916602001820160405280156112875781602001600182028038833980820191505090505b50905060006041845160296020890101010190506112ad8b6040830360408560006118c1565b5060006002836040518082805190602001908083835b602083106112e657805182526020820191506020810190506020830392506112c3565b6001836020036101000a038019825116818451168082178552505050505050905001915050602060405180830381855afa158015611328573d6000803e3d6000fd5b5050506040513d602081101561133d57600080fd5b8101908080519060200190929190505050905083816040516020018083805190602001908083835b602083106113885780518252602082019150602081019050602083039250611365565b6001836020036101000a0380198251168184511680821785525050505050509050018281526020019250505060405160208183030381529060405280519060200120600360008d815260200190815260200160002054141561140057600360008c815260200190815260200160002060009055611410565b600097505050505050505061159c565b606060496040519080825280601f01601f1916602001820160405280156114465781602001600182028038833980820191505090505b5090506114588d8960498460006118c1565b506115016002826040518082805190602001908083835b60208310611492578051825260208201915060208101905060208303925061146f565b6001836020036101000a038019825116818451168082178552505050505050905001915050602060405180830381855afa1580156114d4573d6000803e3d6000fd5b5050506040513d60208110156114e957600080fd5b810190808051906020019092919050505087866122b0565b6115165760009850505050505050505061159c565b6004600083815260200190815260200160002060009054906101000a900460ff16611570576115458d8461246e565b6004600084815260200190815260200160002060006101000a81548160ff0219169083151502179055505b6004600083815260200190815260200160002060009054906101000a900460ff16985050505050505050505b949350505050565b60008073ffffffffffffffffffffffffffffffffffffffff16600160009054906101000a900473ffffffffffffffffffffffffffffffffffffffff1673ffffffffffffffffffffffffffffffffffffffff16148061162c5750600061162a600160009054906101000a900473ffffffffffffffffffffffffffffffffffffffff16610e3b565b145b1561163d5761163b6000610e46565b505b600160009054906101000a900473ffffffffffffffffffffffffffffffffffffffff1673ffffffffffffffffffffffffffffffffffffffff166338cc48316040518163ffffffff1660e01b8152600401602060405180830381600087803b1580156116a757600080fd5b505af11580156116bb573d6000803e3d6000fd5b505050506040513d60208110156116d157600080fd5b810190808051906020019092919050505073ffffffffffffffffffffffffffffffffffffffff166000809054906101000a900473ffffffffffffffffffffffffffffffffffffffff1673ffffffffffffffffffffffffffffffffffffffff161461181a57600160009054906101000a900473ffffffffffffffffffffffffffffffffffffffff1673ffffffffffffffffffffffffffffffffffffffff166338cc48316040518163ffffffff1660e01b8152600401602060405180830381600087803b15801561179f57600080fd5b505af11580156117b3573d6000803e3d6000fd5b505050506040513d60208110156117c957600080fd5b81019080805190602001909291905050506000806101000a81548173ffffffffffffffffffffffffffffffffffffffff021916908373ffffffffffffffffffffffffffffffffffffffff1602179055505b6000809054906101000a900473ffffffffffffffffffffffffffffffffffffffff1673ffffffffffffffffffffffffffffffffffffffff1663abaa5f3e6040518163ffffffff1660e01b815260040160206040518083038186803b15801561188157600080fd5b505afa158015611895573d6000803e3d6000fd5b505050506040513d60208110156118ab57600080fd5b8101908080519060200190929190505050905090565b60606000828501905080845110156118d857600080fd5b600086602001905060008460200190505b86886020010182101561191157818901518082880152506020820191506020810190506118e9565b85935050505095945050505050565b60008073ffffffffffffffffffffffffffffffffffffffff16600160009054906101000a900473ffffffffffffffffffffffffffffffffffffffff1673ffffffffffffffffffffffffffffffffffffffff1614806119a8575060006119a6600160009054906101000a900473ffffffffffffffffffffffffffffffffffffffff16610e3b565b145b156119b9576119b76000610e46565b505b600160009054906101000a900473ffffffffffffffffffffffffffffffffffffffff1673ffffffffffffffffffffffffffffffffffffffff166338cc48316040518163ffffffff1660e01b8152600401602060405180830381600087803b158015611a2357600080fd5b505af1158015611a37573d6000803e3d6000fd5b505050506040513d6020811015611a4d57600080fd5b810190808051906020019092919050505073ffffffffffffffffffffffffffffffffffffffff166000809054906101000a900473ffffffffffffffffffffffffffffffffffffffff1673ffffffffffffffffffffffffffffffffffffffff1614611b9657600160009054906101000a900473ffffffffffffffffffffffffffffffffffffffff1673ffffffffffffffffffffffffffffffffffffffff166338cc48316040518163ffffffff1660e01b8152600401602060405180830381600087803b158015611b1b57600080fd5b505af1158015611b2f573d6000803e3d6000fd5b505050506040513d6020811015611b4557600080fd5b81019080805190602001909291905050506000806101000a81548173ffffffffffffffffffffffffffffffffffffffff021916908373ffffffffffffffffffffffffffffffffffffffff1602179055505b60606004604051908082528060200260200182016040528015611bcd57816020015b6060815260200190600190039081611bb85790505b50905083600060048110611bdd57fe5b602002015181600081518110611bef57fe5b602002602001018190525083600160048110611c0757fe5b602002015181600181518110611c1957fe5b602002602001018190525083600260048110611c3157fe5b602002015181600281518110611c4357fe5b602002602001018190525083600360048110611c5b57fe5b602002015181600381518110611c6d57fe5b6020026020010181905250611c83858285612886565b9150509392505050565b8060036000848152602001908152602001600020819055505050565b600080611cc9731d3b2638a7cc9f2cb3d298a3da7a90b67e5506ed610e3b565b1115611d6b57731d3b2638a7cc9f2cb3d298a3da7a90b67e5506ed600160006101000a81548173ffffffffffffffffffffffffffffffffffffffff021916908373ffffffffffffffffffffffffffffffffffffffff160217905550611d626040518060400160405280600b81526020017f6574685f6d61696e6e6574000000000000000000000000000000000000000000815250612de8565b600190506121fd565b6000611d8a73c03a2615d5efaf5f49f60b7bb6583eaec212fdf1610e3b565b1115611e2c5773c03a2615d5efaf5f49f60b7bb6583eaec212fdf1600160006101000a81548173ffffffffffffffffffffffffffffffffffffffff021916908373ffffffffffffffffffffffffffffffffffffffff160217905550611e236040518060400160405280600c81526020017f6574685f726f707374656e330000000000000000000000000000000000000000815250612de8565b600190506121fd565b6000611e4b73b7a07bcf2ba2f2703b24c0691b5278999c59ac7e610e3b565b1115611eed5773b7a07bcf2ba2f2703b24c0691b5278999c59ac7e600160006101000a81548173ffffffffffffffffffffffffffffffffffffffff021916908373ffffffffffffffffffffffffffffffffffffffff160217905550611ee46040518060400160405280600981526020017f6574685f6b6f76616e0000000000000000000000000000000000000000000000815250612de8565b600190506121fd565b6000611f0c73146500cfd35b22e4a392fe0adc06de1a1368ed48610e3b565b1115611fae5773146500cfd35b22e4a392fe0adc06de1a1368ed48600160006101000a81548173ffffffffffffffffffffffffffffffffffffffff021916908373ffffffffffffffffffffffffffffffffffffffff160217905550611fa56040518060400160405280600b81526020017f6574685f72696e6b656279000000000000000000000000000000000000000000815250612de8565b600190506121fd565b6000611fcd73a2998efd205fb9d4b4963afb70778d6354ad3a41610e3b565b111561206f5773a2998efd205fb9d4b4963afb70778d6354ad3a41600160006101000a81548173ffffffffffffffffffffffffffffffffffffffff021916908373ffffffffffffffffffffffffffffffffffffffff1602179055506120666040518060400160405280600a81526020017f6574685f676f65726c6900000000000000000000000000000000000000000000815250612de8565b600190506121fd565b600061208e736f485c8bf6fc43ea212e93bbf8ce046c7f1cb475610e3b565b11156120f257736f485c8bf6fc43ea212e93bbf8ce046c7f1cb475600160006101000a81548173ffffffffffffffffffffffffffffffffffffffff021916908373ffffffffffffffffffffffffffffffffffffffff160217905550600190506121fd565b60006121117320e12a1f859b3feae5fb2a0a32c18f5a65555bbf610e3b565b1115612175577320e12a1f859b3feae5fb2a0a32c18f5a65555bbf600160006101000a81548173ffffffffffffffffffffffffffffffffffffffff021916908373ffffffffffffffffffffffffffffffffffffffff160217905550600190506121fd565b60006121947351efaf4c8b3c9afbd5ab9f4bbc82784ab6ef8faa610e3b565b11156121f8577351efaf4c8b3c9afbd5ab9f4bbc82784ab6ef8faa600160006101000a81548173ffffffffffffffffffffffffffffffffffffffff021916908373ffffffffffffffffffffffffffffffffffffffff160217905550600190506121fd565b600090505b90565b600080600190508284511461221457600080fd5b60008090505b838110156122a45784818151811061222e57fe5b602001015160f81c60f81b7effffffffffffffffffffffffffffffffffffffffffffffffffffffffffffff191686826020811061226757fe5b1a60f81b7effffffffffffffffffffffffffffffffffffffffffffffffffffffffffffff19161461229757600091505b808060010191505061221a565b50809150509392505050565b6000806000806000606060206040519080825280601f01601f1916602001820160405280156122ee5781602001600182028038833980820191505090505b509050600060208960038151811061230257fe5b602001015160f81c60f81b60f81c60ff16036004019050612328898260208560006118c1565b9150606060206040519080825280601f01601f1916602001820160405280156123605781602001600182028038833980820191505090505b50905060228201915061239c8a60208c600186038151811061237e57fe5b602001015160f81c60f81b60f81c60ff1603840160208460006118c1565b905060208301519450602081015193506123b98b601b8787612e02565b80975081985050508573ffffffffffffffffffffffffffffffffffffffff16898051906020012060001c73ffffffffffffffffffffffffffffffffffffffff16141561240f576001975050505050505050612467565b61241c8b601c8787612e02565b80975081985050508573ffffffffffffffffffffffffffffffffffffffff16898051906020012060001c73ffffffffffffffffffffffffffffffffffffffff16149750505050505050505b9392505050565b6000806060600285600186018151811061248457fe5b602001015160f81c60f81b60f81c60ff16016040519080825280601f01601f1916602001820160405280156124c85781602001600182028038833980820191505090505b5090506124da858583518460006118c1565b506060604080519080825280601f01601f1916602001820160405280156125105781602001600182028038833980820191505090505b50905061252386600460408460006118c1565b50606060626040519080825280601f01601f19166020018201604052801561255a5781602001600182028038833980820191505090505b509050600160f81b8160008151811061256f57fe5b60200101907effffffffffffffffffffffffffffffffffffffffffffffffffffffffffffff1916908160001a9053506125b0876041880360418460016118c1565b5060606040518060400160405280602081526020017ffd94fa71bc0ba10d39d464d0d8f465efeef0a2764e3887fcc9df41ded20f505c81525090506125fb81600060208560426118c1565b506126a46002836040518082805190602001908083835b602083106126355780518252602082019150602081019050602083039250612612565b6001836020036101000a038019825116818451168082178552505050505050905001915050602060405180830381855afa158015612677573d6000803e3d6000fd5b5050506040513d602081101561268c57600080fd5b810190808051906020019092919050505085856122b0565b9450846126b957600095505050505050612880565b6060604051806060016040528060408152602001613336604091399050606060426040519080825280601f01601f19166020018201604052801561270c5781602001600182028038833980820191505090505b50905060fe60f81b8160008151811061272157fe5b60200101907effffffffffffffffffffffffffffffffffffffffffffffffffffffffffffff1916908160001a9053506127608a600360418460016118c1565b50606060028b60458151811061277257fe5b602001015160f81c60f81b60f81c60ff16016040519080825280601f01601f1916602001820160405280156127b65781602001600182028038833980820191505090505b5090506127c98b604483518460006118c1565b506128726002836040518082805190602001908083835b6020831061280357805182526020820191506020810190506020830392506127e0565b6001836020036101000a038019825116818451168082178552505050505050905001915050602060405180830381855afa158015612845573d6000803e3d6000fd5b5050506040513d602081101561285a57600080fd5b810190808051906020019092919050505082856122b0565b975087985050505050505050505b92915050565b60008073ffffffffffffffffffffffffffffffffffffffff16600160009054906101000a900473ffffffffffffffffffffffffffffffffffffffff1673ffffffffffffffffffffffffffffffffffffffff16148061290e5750600061290c600160009054906101000a900473ffffffffffffffffffffffffffffffffffffffff16610e3b565b145b1561291f5761291d6000610e46565b505b600160009054906101000a900473ffffffffffffffffffffffffffffffffffffffff1673ffffffffffffffffffffffffffffffffffffffff166338cc48316040518163ffffffff1660e01b8152600401602060405180830381600087803b15801561298957600080fd5b505af115801561299d573d6000803e3d6000fd5b505050506040513d60208110156129b357600080fd5b810190808051906020019092919050505073ffffffffffffffffffffffffffffffffffffffff166000809054906101000a900473ffffffffffffffffffffffffffffffffffffffff1673ffffffffffffffffffffffffffffffffffffffff1614612afc57600160009054906101000a900473ffffffffffffffffffffffffffffffffffffffff1673ffffffffffffffffffffffffffffffffffffffff166338cc48316040518163ffffffff1660e01b8152600401602060405180830381600087803b158015612a8157600080fd5b505af1158015612a95573d6000803e3d6000fd5b505050506040513d6020811015612aab57600080fd5b81019080805190602001909291905050506000806101000a81548173ffffffffffffffffffffffffffffffffffffffff021916908373ffffffffffffffffffffffffffffffffffffffff1602179055505b60008060009054906101000a900473ffffffffffffffffffffffffffffffffffffffff1673ffffffffffffffffffffffffffffffffffffffff16632ef3accc86856040518363ffffffff1660e01b81526004018080602001838152602001828103825284818151815260200191508051906020019080838360005b83811015612b92578082015181840152602081019050612b77565b50505050905090810190601f168015612bbf5780820380516001836020036101000a031916815260200191505b509350505050602060405180830381600087803b158015612bdf57600080fd5b505af1158015612bf3573d6000803e3d6000fd5b505050506040513d6020811015612c0957600080fd5b81019080805190602001909291905050509050823a02670de0b6b3a764000001811115612c3c576000801b915050612de1565b6060612c4785612e46565b90506000809054906101000a900473ffffffffffffffffffffffffffffffffffffffff1673ffffffffffffffffffffffffffffffffffffffff1663c55c1cb68360008985896040518663ffffffff1660e01b8152600401808581526020018060200180602001848152602001838103835286818151815260200191508051906020019080838360005b83811015612ceb578082015181840152602081019050612cd0565b50505050905090810190601f168015612d185780820380516001836020036101000a031916815260200191505b50838103825285818151815260200191508051906020019080838360005b83811015612d51578082015181840152602081019050612d36565b50505050905090810190601f168015612d7e5780820380516001836020036101000a031916815260200191505b5096505050505050506020604051808303818588803b158015612da057600080fd5b505af1158015612db4573d6000803e3d6000fd5b50505050506040513d6020811015612dcb57600080fd5b8101908080519060200190929190505050925050505b9392505050565b8060029080519060200190612dfe929190613276565b5050565b60008060008060405188815287602082015286604082015285606082015260208160808360006001610bb8f192508051915050818193509350505094509492505050565b6060612e50612ec6565b612e586132f6565b612e6481610400612ed2565b612e6d81612f1c565b60008090505b8351811015612eaf57612ea2848281518110612e8b57fe5b602002602001015183612f2a90919063ffffffff16565b8080600101915050612e73565b50612eb981612f4f565b8060000151915050919050565b60405180590338823950565b6000819050600060208281612ee357fe5b0614612efc5760208181612ef357fe5b06602003810190505b808360200181815250506040518084526000815281810160405250505050565b612f27816004612f5d565b50565b612f378260028351612f7e565b612f4a81836130be90919063ffffffff16565b505050565b612f5a816007612f5d565b50565b612f7a601f60058360ff16901b178361316990919063ffffffff16565b5050565b60178111612faa57612fa58160058460ff16901b60ff16178461316990919063ffffffff16565b6130b9565b60ff8111612feb57612fcf601860058460ff16901b178461316990919063ffffffff16565b612fe5816001856131a99092919063ffffffff16565b506130b8565b61ffff811161302d57613011601960058460ff16901b178461316990919063ffffffff16565b613027816002856131a99092919063ffffffff16565b506130b7565b63ffffffff811161307157613055601a60058460ff16901b178461316990919063ffffffff16565b61306b816004856131a99092919063ffffffff16565b506130b6565b67ffffffffffffffff81116130b55761309d601b60058460ff16901b178461316990919063ffffffff16565b6130b3816008856131a99092919063ffffffff16565b505b5b5b5b5b505050565b6130c66132f6565b826020015183600001515183510111156130f6576130f58360026130ef86602001518651613210565b0261322c565b5b60008060008451905085518051602081830101945086518101825260208701935050505b6020811061313d578151835260208301925060208201915060208103905061311a565b60006001826020036101000a039050801983511681855116818117865250508694505050505092915050565b8160200151600183600001515101111561318f5761318e82600284602001510261322c565b5b815180516020818301018381536001820183525050505050565b6131b16132f6565b8360200151846000015151830111156131df576131de8460026131d8876020015186613210565b0261322c565b5b60006001836101000a0390508451805184818301018684198251161781528582018352505050849150509392505050565b60008183111561322257829050613226565b8190505b92915050565b60608260000151905061323f8383612ed2565b61324983826130be565b50505050565b60405180608001604052806004905b606081526020019060019003908161325e5790505090565b828054600181600116156101000203166002900490600052602060002090601f016020900481019282601f106132b757805160ff19168380011785556132e5565b828001600101855582156132e5579182015b828111156132e45782518255916020019190600101906132c9565b5b5090506132f29190613310565b5090565b604051806040016040528060608152602001600081525090565b61333291905b8082111561332e576000816000905550600101613316565b5090565b9056fe7fb956469c5c9b89840d55b43537e66a98dd4811ea0a27224272c2e5622911e8537a2f8e86a46baec82864e98dd01e9ccc2f8bc5dfc9cbe5a91a290498dd96e450726f7661626c65207175657279207761732073656e742c207374616e64696e6720627920666f722074686520616e737765722e2e2ea265627a7a7231582073f78106520a4e9dd9662c6f5e8e7cb15e2b73e12ae1f35ce9a307596a6cdbdd64736f6c6343000510003250726f7661626c65207175657279207761732073656e742c207374616e64696e6720627920666f722074686520616e737765722e2e2e",
  "source": "pragma solidity >= 0.5.0 < 0.6.0;\r\n\r\nimport \"./provableAPI_0.5.sol\";\r\n\r\ncontract RandomExample is usingProvable {\r\n\r\n    uint256 constant MAX_INT_FROM_BYTE = 2; // set number of random values to choose from\r\n    uint256 constant NUM_RANDOM_BYTES_REQUESTED = 1; //how many bytes of numbers to use\r\n\r\n    event LogNewProvableQuery(string description);\r\n    event generatedRandomNumber(uint256 randomNumber);\r\n\r\n    constructor()\r\n        public\r\n    {\r\n        provable_setProof(proofType_Ledger);\r\n        update();\r\n    }\r\n\r\n// This function is called back when the random number is event is emitted from the oracle.\r\n    function __callback( bytes32 _queryId, string memory _result, bytes memory _proof )\r\n        public\r\n    {\r\n        require(msg.sender == provable_cbAddress());\r\n\r\n        if (provable_randomDS_proofVerify__returnCode(_queryId, _result, _proof) != 0) {\r\n             // the proof verification has failed! Handle this case\r\n\r\n        } else {\r\n             // The proof verifiction has passed!\r\n            uint256 ceiling = (MAX_INT_FROM_BYTE ** NUM_RANDOM_BYTES_REQUESTED) - 1;\r\n            uint256 randomNumber = uint256(keccak256(abi.encodePacked(_result))) % ceiling;\r\n            emit generatedRandomNumber(randomNumber);\r\n        }\r\n    }\r\n\r\n// This function is calling the random number\r\n    function update()\r\n        payable\r\n        public\r\n    {\r\n        uint256 QUERY_EXECUTION_DELAY = 0;\r\n        uint256 GAS_FOR_CALLBACK = 200000;\r\n        bytes32 QueryID;\r\n        QueryID = provable_newRandomDSQuery( QUERY_EXECUTION_DELAY, NUM_RANDOM_BYTES_REQUESTED, GAS_FOR_CALLBACK );\r\n        emit LogNewProvableQuery(\"Provable query was sent, standing by for the answer...\");\r\n    }\r\n}\r\n",
  "sourcePath": "C:\\Users\\kira.summers\\ethereum\\randomOracle\\contracts\\random.sol",
  "compiler": {
    "name": "solc",
    "version": "0.5.16+commit.9c3226ce.Emscripten.clang"
  },
  "schemaVersion": "3.0.23",
  "updatedAt": "2020-06-01T17:25:06.986Z",
  "devdoc": {
    "methods": {
      "__callback(bytes32,string)": {
        "details": "The following `__callback` functions are just placeholders ideally     meant to be defined in child contract when proofs are used.     The function bodies simply silence compiler warnings."
      }
    }
  },
  "userdoc": {
    "methods": {}
  }
}